{"hash":"812678015b57ecce84d576483524e480bf2130e5930823f3e0f1740297f765f5","confirmations":64451,"strippedsize":234,"size":234,"weight":936,"height":1449904,"version":536870912,"versionHex":"20000000","merkleroot":"155b068770df6cd38d6e557a910f9394a0d54fd480d6df824fa8c0a19166e2a7","tx":[{"txid":"155b068770df6cd38d6e557a910f9394a0d54fd480d6df824fa8c0a19166e2a7","hash":"155b068770df6cd38d6e557a910f9394a0d54fd480d6df824fa8c0a19166e2a7","version":1,"size":153,"vsize":153,"weight":612,"locktime":0,"vin":[{"ismweb":false,"coinbase":"03b01f16045b3b1bc72cfabe6d6d527ed42b5c3885da033f84fa749bff7995a600488c7bff31afb81cd7c39acb744000000000000000042f4c502f0822009125271a0000","sequence":4294967295}],"vout":[{"ismweb":false,"value":25.00000000,"n":0,"scriptPubKey":{"asm":"OP_DUP OP_HASH160 57757edd001d16528c7aa337b314a7bab303ee80 OP_EQUALVERIFY OP_CHECKSIG","hex":"76a91457757edd001d16528c7aa337b314a7bab303ee8088ac","reqSigs":1,"type":"pubkeyhash","addresses":["LTCPodtg91HsKf5xB1MQ5L13CkcSfd2rCV"]}}],"hex":"01000000010000000000000000000000000000000000000000000000000000000000000000ffffffff4403b01f16045b3b1bc72cfabe6d6d527ed42b5c3885da033f84fa749bff7995a600488c7bff31afb81cd7c39acb744000000000000000042f4c502f0822009125271a0000ffffffff0100f90295000000001976a91457757edd001d16528c7aa337b314a7bab303ee8088ac00000000"}],"time":1530600391,"mediantime":1530599941,"nonce":57978483,"bits":"1a01b326","difficulty":9869969.394064525,"chainwork":"0000000000000000000000000000000000000000000000d6881e2275e80522b2","nTx":1,"previousblockhash":"eff691f8116491f5347420455596a534156c794db7bedde50b1205e80be1c41f","nextblockhash":"bc4cc97252dd51a03aa0ff2d7823a7b9ae70db5c978e7fb930a3e6b0fab992af"}
